{
  "contractName": "Sbitwise",
  "abi": [
    {
      "inputs": [
        {
          "internalType": "string",
          "name": "_adminName",
          "type": "string"
        }
      ],
      "stateMutability": "nonpayable",
      "type": "constructor"
    },
    {
      "anonymous": false,
      "inputs": [
        {
          "indexed": true,
          "internalType": "address",
          "name": "oldAdmin",
          "type": "address"
        },
        {
          "indexed": true,
          "internalType": "address",
          "name": "newAdmin",
          "type": "address"
        }
      ],
      "name": "AdminSet",
      "type": "event"
    },
    {
      "anonymous": false,
      "inputs": [
        {
          "indexed": true,
          "internalType": "string",
          "name": "name",
          "type": "string"
        },
        {
          "indexed": false,
          "internalType": "string",
          "name": "exchangeType",
          "type": "string"
        },
        {
          "indexed": true,
          "internalType": "int256",
          "name": "amount",
          "type": "int256"
        }
      ],
      "name": "newSplit",
      "type": "event"
    },
    {
      "inputs": [],
      "name": "groupAdmin",
      "outputs": [
        {
          "internalType": "address",
          "name": "",
          "type": "address"
        }
      ],
      "stateMutability": "view",
      "type": "function",
      "constant": true
    },
    {
      "inputs": [
        {
          "internalType": "address",
          "name": "",
          "type": "address"
        }
      ],
      "name": "groupMembers",
      "outputs": [
        {
          "internalType": "string",
          "name": "name",
          "type": "string"
        },
        {
          "internalType": "int256",
          "name": "amountPaid",
          "type": "int256"
        },
        {
          "internalType": "bool",
          "name": "confirmedSplit",
          "type": "bool"
        },
        {
          "internalType": "int256",
          "name": "owes",
          "type": "int256"
        }
      ],
      "stateMutability": "view",
      "type": "function",
      "constant": true
    },
    {
      "inputs": [
        {
          "internalType": "uint256",
          "name": "",
          "type": "uint256"
        }
      ],
      "name": "memberAddresses",
      "outputs": [
        {
          "internalType": "address",
          "name": "",
          "type": "address"
        }
      ],
      "stateMutability": "view",
      "type": "function",
      "constant": true
    },
    {
      "inputs": [
        {
          "internalType": "address",
          "name": "_groupMember",
          "type": "address"
        },
        {
          "internalType": "string",
          "name": "_name",
          "type": "string"
        }
      ],
      "name": "addToGroup",
      "outputs": [],
      "stateMutability": "nonpayable",
      "type": "function"
    },
    {
      "inputs": [
        {
          "internalType": "address",
          "name": "_groupMember",
          "type": "address"
        }
      ],
      "name": "removeFromGroup",
      "outputs": [],
      "stateMutability": "nonpayable",
      "type": "function"
    },
    {
      "inputs": [
        {
          "internalType": "int256",
          "name": "_valuePaid",
          "type": "int256"
        }
      ],
      "name": "setPaid",
      "outputs": [],
      "stateMutability": "nonpayable",
      "type": "function"
    },
    {
      "inputs": [
        {
          "internalType": "int256",
          "name": "_valuePaid",
          "type": "int256"
        }
      ],
      "name": "addToPaid",
      "outputs": [],
      "stateMutability": "nonpayable",
      "type": "function"
    },
    {
      "inputs": [],
      "name": "printSplit",
      "outputs": [],
      "stateMutability": "nonpayable",
      "type": "function"
    },
    {
      "inputs": [],
      "name": "agreeToSplit",
      "outputs": [],
      "stateMutability": "nonpayable",
      "type": "function"
    },
    {
      "inputs": [],
      "name": "putMoneyInContract",
      "outputs": [],
      "stateMutability": "payable",
      "type": "function",
      "payable": true
    },
    {
      "inputs": [],
      "name": "settleUp",
      "outputs": [],
      "stateMutability": "nonpayable",
      "type": "function"
    },
    {
      "inputs": [],
      "name": "sendAllMoneyBack",
      "outputs": [],
      "stateMutability": "nonpayable",
      "type": "function"
    },
    {
      "inputs": [
        {
          "internalType": "address",
          "name": "_newAdmin",
          "type": "address"
        }
      ],
      "name": "changeAdmin",
      "outputs": [],
      "stateMutability": "nonpayable",
      "type": "function"
    }
  ],
  "bytecode": "0x60806040523480156200001157600080fd5b5060405162002ef438038062002ef48339818101604052810190620000379190620004ad565b336000806101000a81548173ffffffffffffffffffffffffffffffffffffffff021916908373ffffffffffffffffffffffffffffffffffffffff16021790555080600160008060009054906101000a900473ffffffffffffffffffffffffffffffffffffffff1673ffffffffffffffffffffffffffffffffffffffff1673ffffffffffffffffffffffffffffffffffffffff1681526020019081526020016000206000019080519060200190620000f092919062000260565b506000600160008060009054906101000a900473ffffffffffffffffffffffffffffffffffffffff1673ffffffffffffffffffffffffffffffffffffffff1673ffffffffffffffffffffffffffffffffffffffff168152602001908152602001600020600101819055506000600160008060009054906101000a900473ffffffffffffffffffffffffffffffffffffffff1673ffffffffffffffffffffffffffffffffffffffff1673ffffffffffffffffffffffffffffffffffffffff16815260200190815260200160002060020160006101000a81548160ff021916908315150217905550600260008054906101000a900473ffffffffffffffffffffffffffffffffffffffff169080600181540180825580915050600190039060005260206000200160009091909190916101000a81548173ffffffffffffffffffffffffffffffffffffffff021916908373ffffffffffffffffffffffffffffffffffffffff1602179055505062000562565b8280546200026e906200052d565b90600052602060002090601f016020900481019282620002925760008555620002de565b82601f10620002ad57805160ff1916838001178555620002de565b82800160010185558215620002de579182015b82811115620002dd578251825591602001919060010190620002c0565b5b509050620002ed9190620002f1565b5090565b5b808211156200030c576000816000905550600101620002f2565b5090565b6000604051905090565b600080fd5b600080fd5b600080fd5b600080fd5b6000601f19601f8301169050919050565b7f4e487b7100000000000000000000000000000000000000000000000000000000600052604160045260246000fd5b62000379826200032e565b810181811067ffffffffffffffff821117156200039b576200039a6200033f565b5b80604052505050565b6000620003b062000310565b9050620003be82826200036e565b919050565b600067ffffffffffffffff821115620003e157620003e06200033f565b5b620003ec826200032e565b9050602081019050919050565b60005b8381101562000419578082015181840152602081019050620003fc565b8381111562000429576000848401525b50505050565b6000620004466200044084620003c3565b620003a4565b90508281526020810184848401111562000465576200046462000329565b5b62000472848285620003f9565b509392505050565b600082601f83011262000492576200049162000324565b5b8151620004a48482602086016200042f565b91505092915050565b600060208284031215620004c657620004c56200031a565b5b600082015167ffffffffffffffff811115620004e757620004e66200031f565b5b620004f5848285016200047a565b91505092915050565b7f4e487b7100000000000000000000000000000000000000000000000000000000600052602260045260246000fd5b600060028204905060018216806200054657607f821691505b6020821081036200055c576200055b620004fe565b5b50919050565b61298280620005726000396000f3fe6080604052600436106100c25760003560e01c80637ee9b2381161007f57806398281d111161005957806398281d111461022d5780639de227ef14610244578063b3c7b11c1461025b578063cc4e629914610265576100c2565b80637ee9b2381461019b5780638f283970146101c45780639473ed47146101ed576100c2565b80631545ae9d146100c7578063235b15d9146100f057806340e3953114610119578063425e0d0f146101445780635287b84b1461016d57806364e8dbee14610184575b600080fd5b3480156100d357600080fd5b506100ee60048036038101906100e9919061213e565b6102a2565b005b3480156100fc57600080fd5b50610117600480360381019061011291906121d0565b610491565b005b34801561012557600080fd5b5061012e610683565b60405161013b919061220c565b60405180910390f35b34801561015057600080fd5b5061016b60048036038101906101669190612227565b6106a7565b005b34801561017957600080fd5b50610182610738565b005b34801561019057600080fd5b50610199610e63565b005b3480156101a757600080fd5b506101c260048036038101906101bd91906121d0565b610fa2565b005b3480156101d057600080fd5b506101eb60048036038101906101e69190612227565b6111a6565b005b3480156101f957600080fd5b50610214600480360381019061020f9190612227565b6112f1565b6040516102249493929190612306565b60405180910390f35b34801561023957600080fd5b506102426113b6565b005b34801561025057600080fd5b50610259611714565b005b610263611990565b005b34801561027157600080fd5b5061028c60048036038101906102879190612388565b611c81565b604051610299919061220c565b60405180910390f35b60008054906101000a900473ffffffffffffffffffffffffffffffffffffffff1673ffffffffffffffffffffffffffffffffffffffff163373ffffffffffffffffffffffffffffffffffffffff1614610330576040517f08c379a000000000000000000000000000000000000000000000000000000000815260040161032790612401565b60405180910390fd5b80600160008473ffffffffffffffffffffffffffffffffffffffff1673ffffffffffffffffffffffffffffffffffffffff1681526020019081526020016000206000019080519060200190610386929190611ee3565b506000600160008473ffffffffffffffffffffffffffffffffffffffff1673ffffffffffffffffffffffffffffffffffffffff168152602001908152602001600020600101819055506000600160008473ffffffffffffffffffffffffffffffffffffffff1673ffffffffffffffffffffffffffffffffffffffff16815260200190815260200160002060020160006101000a81548160ff0219169083151502179055506002829080600181540180825580915050600190039060005260206000200160009091909190916101000a81548173ffffffffffffffffffffffffffffffffffffffff021916908373ffffffffffffffffffffffffffffffffffffffff1602179055505050565b6000805b60028054905081101561052b57600281815481106104b6576104b5612421565b5b9060005260206000200160009054906101000a900473ffffffffffffffffffffffffffffffffffffffff1673ffffffffffffffffffffffffffffffffffffffff163373ffffffffffffffffffffffffffffffffffffffff160361051857600191505b80806105239061247f565b915050610495565b506001151581151514610573576040517f08c379a000000000000000000000000000000000000000000000000000000000815260040161056a90612513565b60405180910390fd5b81600160003373ffffffffffffffffffffffffffffffffffffffff1673ffffffffffffffffffffffffffffffffffffffff1681526020019081526020016000206001018190555060005b60028054905081101561067657600060016000600284815481106105e4576105e3612421565b5b9060005260206000200160009054906101000a900473ffffffffffffffffffffffffffffffffffffffff1673ffffffffffffffffffffffffffffffffffffffff1673ffffffffffffffffffffffffffffffffffffffff16815260200190815260200160002060020160006101000a81548160ff021916908315150217905550808061066e9061247f565b9150506105bd565b5061067f611cc0565b5050565b60008054906101000a900473ffffffffffffffffffffffffffffffffffffffff1681565b60008054906101000a900473ffffffffffffffffffffffffffffffffffffffff1673ffffffffffffffffffffffffffffffffffffffff163373ffffffffffffffffffffffffffffffffffffffff1614610735576040517f08c379a000000000000000000000000000000000000000000000000000000000815260040161072c90612401565b60405180910390fd5b50565b60006001905060005b6002805490508110156107ff5760001515600160006002848154811061076a57610769612421565b5b9060005260206000200160009054906101000a900473ffffffffffffffffffffffffffffffffffffffff1673ffffffffffffffffffffffffffffffffffffffff1673ffffffffffffffffffffffffffffffffffffffff16815260200190815260200160002060020160009054906101000a900460ff161515036107ec57600091505b80806107f79061247f565b915050610741565b506001151581151514610847576040517f08c379a000000000000000000000000000000000000000000000000000000000815260040161083e9061257f565b60405180910390fd5b60006001905060005b600280549050811015610a0757600360006002838154811061087557610874612421565b5b9060005260206000200160009054906101000a900473ffffffffffffffffffffffffffffffffffffffff1673ffffffffffffffffffffffffffffffffffffffff1673ffffffffffffffffffffffffffffffffffffffff1681526020019081526020016000205460016000600284815481106108f3576108f2612421565b5b9060005260206000200160009054906101000a900473ffffffffffffffffffffffffffffffffffffffff1673ffffffffffffffffffffffffffffffffffffffff1673ffffffffffffffffffffffffffffffffffffffff16815260200190815260200160002060030154141580156109ea57506000600160006002848154811061097f5761097e612421565b5b9060005260206000200160009054906101000a900473ffffffffffffffffffffffffffffffffffffffff1673ffffffffffffffffffffffffffffffffffffffff1673ffffffffffffffffffffffffffffffffffffffff16815260200190815260200160002060030154135b156109f457600091505b80806109ff9061247f565b915050610850565b506001151581151514610a4f576040517f08c379a0000000000000000000000000000000000000000000000000000000008152600401610a46906125eb565b60405180910390fd5b600080600090505b600280549050811015610c115760006001600060028481548110610a7e57610a7d612421565b5b9060005260206000200160009054906101000a900473ffffffffffffffffffffffffffffffffffffffff1673ffffffffffffffffffffffffffffffffffffffff1673ffffffffffffffffffffffffffffffffffffffff168152602001908152602001600020600301541215610bfe5760028181548110610b0157610b00612421565b5b9060005260206000200160009054906101000a900473ffffffffffffffffffffffffffffffffffffffff1691508173ffffffffffffffffffffffffffffffffffffffff166108fc610bd16001600060028681548110610b6357610b62612421565b5b9060005260206000200160009054906101000a900473ffffffffffffffffffffffffffffffffffffffff1673ffffffffffffffffffffffffffffffffffffffff1673ffffffffffffffffffffffffffffffffffffffff16815260200190815260200160002060030154611ec1565b9081150290604051600060405180830381858888f19350505050158015610bfc573d6000803e3d6000fd5b505b8080610c099061247f565b915050610a57565b5060005b600280549050811015610e5d5760006003600060028481548110610c3c57610c3b612421565b5b9060005260206000200160009054906101000a900473ffffffffffffffffffffffffffffffffffffffff1673ffffffffffffffffffffffffffffffffffffffff1673ffffffffffffffffffffffffffffffffffffffff1681526020019081526020016000208190555060006001600060028481548110610cbf57610cbe612421565b5b9060005260206000200160009054906101000a900473ffffffffffffffffffffffffffffffffffffffff1673ffffffffffffffffffffffffffffffffffffffff1673ffffffffffffffffffffffffffffffffffffffff16815260200190815260200160002060020160006101000a81548160ff02191690831515021790555060006001600060028481548110610d5857610d57612421565b5b9060005260206000200160009054906101000a900473ffffffffffffffffffffffffffffffffffffffff1673ffffffffffffffffffffffffffffffffffffffff1673ffffffffffffffffffffffffffffffffffffffff1681526020019081526020016000206001018190555060006001600060028481548110610dde57610ddd612421565b5b9060005260206000200160009054906101000a900473ffffffffffffffffffffffffffffffffffffffff1673ffffffffffffffffffffffffffffffffffffffff1673ffffffffffffffffffffffffffffffffffffffff168152602001908152602001600020600301819055508080610e559061247f565b915050610c15565b50505050565b6000805b600280549050811015610efd5760028181548110610e8857610e87612421565b5b9060005260206000200160009054906101000a900473ffffffffffffffffffffffffffffffffffffffff1673ffffffffffffffffffffffffffffffffffffffff163373ffffffffffffffffffffffffffffffffffffffff1603610eea57600191505b8080610ef59061247f565b915050610e67565b506001151581151514610f45576040517f08c379a0000000000000000000000000000000000000000000000000000000008152600401610f3c90612513565b60405180910390fd5b60018060003373ffffffffffffffffffffffffffffffffffffffff1673ffffffffffffffffffffffffffffffffffffffff16815260200190815260200160002060020160006101000a81548160ff02191690831515021790555050565b6000805b60028054905081101561103c5760028181548110610fc757610fc6612421565b5b9060005260206000200160009054906101000a900473ffffffffffffffffffffffffffffffffffffffff1673ffffffffffffffffffffffffffffffffffffffff163373ffffffffffffffffffffffffffffffffffffffff160361102957600191505b80806110349061247f565b915050610fa6565b506001151581151514611084576040517f08c379a000000000000000000000000000000000000000000000000000000000815260040161107b90612513565b60405180910390fd5b81600160003373ffffffffffffffffffffffffffffffffffffffff1673ffffffffffffffffffffffffffffffffffffffff16815260200190815260200160002060010160008282546110d6919061260b565b9250508190555060005b600280549050811015611199576000600160006002848154811061110757611106612421565b5b9060005260206000200160009054906101000a900473ffffffffffffffffffffffffffffffffffffffff1673ffffffffffffffffffffffffffffffffffffffff1673ffffffffffffffffffffffffffffffffffffffff16815260200190815260200160002060020160006101000a81548160ff02191690831515021790555080806111919061247f565b9150506110e0565b506111a2611cc0565b5050565b60008054906101000a900473ffffffffffffffffffffffffffffffffffffffff1673ffffffffffffffffffffffffffffffffffffffff163373ffffffffffffffffffffffffffffffffffffffff1614611234576040517f08c379a000000000000000000000000000000000000000000000000000000000815260040161122b90612401565b60405180910390fd5b8073ffffffffffffffffffffffffffffffffffffffff1660008054906101000a900473ffffffffffffffffffffffffffffffffffffffff1673ffffffffffffffffffffffffffffffffffffffff167fbf265e8326285a2747e33e54d5945f7111f2b5edb826eb8c08d4677779b3ff9760405160405180910390a3806000806101000a81548173ffffffffffffffffffffffffffffffffffffffff021916908373ffffffffffffffffffffffffffffffffffffffff16021790555050565b6001602052806000526040600020600091509050806000018054611314906126ce565b80601f0160208091040260200160405190810160405280929190818152602001828054611340906126ce565b801561138d5780601f106113625761010080835404028352916020019161138d565b820191906000526020600020905b81548152906001019060200180831161137057829003601f168201915b5050505050908060010154908060020160009054906101000a900460ff16908060030154905084565b60008054906101000a900473ffffffffffffffffffffffffffffffffffffffff1673ffffffffffffffffffffffffffffffffffffffff163373ffffffffffffffffffffffffffffffffffffffff1614611444576040517f08c379a000000000000000000000000000000000000000000000000000000000815260040161143b90612401565b60405180910390fd5b60005b60028054905081101561171157600080600360006002858154811061146f5761146e612421565b5b9060005260206000200160009054906101000a900473ffffffffffffffffffffffffffffffffffffffff1673ffffffffffffffffffffffffffffffffffffffff1673ffffffffffffffffffffffffffffffffffffffff16815260200190815260200160002054131561166457600282815481106114ef576114ee612421565b5b9060005260206000200160009054906101000a900473ffffffffffffffffffffffffffffffffffffffff1690508073ffffffffffffffffffffffffffffffffffffffff166108fc600360006002868154811061154e5761154d612421565b5b9060005260206000200160009054906101000a900473ffffffffffffffffffffffffffffffffffffffff1673ffffffffffffffffffffffffffffffffffffffff1673ffffffffffffffffffffffffffffffffffffffff168152602001908152602001600020549081150290604051600060405180830381858888f193505050501580156115df573d6000803e3d6000fd5b50600060036000600285815481106115fa576115f9612421565b5b9060005260206000200160009054906101000a900473ffffffffffffffffffffffffffffffffffffffff1673ffffffffffffffffffffffffffffffffffffffff1673ffffffffffffffffffffffffffffffffffffffff168152602001908152602001600020819055505b6000600160006002858154811061167e5761167d612421565b5b9060005260206000200160009054906101000a900473ffffffffffffffffffffffffffffffffffffffff1673ffffffffffffffffffffffffffffffffffffffff1673ffffffffffffffffffffffffffffffffffffffff16815260200190815260200160002060020160006101000a81548160ff0219169083151502179055505080806117099061247f565b915050611447565b50565b606060005b60028054905081101561198c57600060016000600284815481106117405761173f612421565b5b9060005260206000200160009054906101000a900473ffffffffffffffffffffffffffffffffffffffff1673ffffffffffffffffffffffffffffffffffffffff1673ffffffffffffffffffffffffffffffffffffffff16815260200190815260200160002060030154126117eb576040518060400160405280600881526020017f77696c6c207061790000000000000000000000000000000000000000000000008152509150611824565b6040518060400160405280600c81526020017f77696c6c2072656365697665000000000000000000000000000000000000000081525091505b6118ad600160006002848154811061183f5761183e612421565b5b9060005260206000200160009054906101000a900473ffffffffffffffffffffffffffffffffffffffff1673ffffffffffffffffffffffffffffffffffffffff1673ffffffffffffffffffffffffffffffffffffffff16815260200190815260200160002060030154611ec1565b60016000600284815481106118c5576118c4612421565b5b9060005260206000200160009054906101000a900473ffffffffffffffffffffffffffffffffffffffff1673ffffffffffffffffffffffffffffffffffffffff1673ffffffffffffffffffffffffffffffffffffffff16815260200190815260200160002060000160405161193a919061279e565b60405180910390207fa4a522d8b8a3c2e5dc9dd2373445d3635585c5559dc15680e67fca117de678ff8460405161197191906127b5565b60405180910390a380806119849061247f565b915050611719565b5050565b6000805b600280549050811015611a2a57600281815481106119b5576119b4612421565b5b9060005260206000200160009054906101000a900473ffffffffffffffffffffffffffffffffffffffff1673ffffffffffffffffffffffffffffffffffffffff163373ffffffffffffffffffffffffffffffffffffffff1603611a1757600191505b8080611a229061247f565b915050611994565b506001151581151514611a72576040517f08c379a0000000000000000000000000000000000000000000000000000000008152600401611a6990612513565b60405180910390fd5b60006001905060005b600280549050811015611b3957600015156001600060028481548110611aa457611aa3612421565b5b9060005260206000200160009054906101000a900473ffffffffffffffffffffffffffffffffffffffff1673ffffffffffffffffffffffffffffffffffffffff1673ffffffffffffffffffffffffffffffffffffffff16815260200190815260200160002060020160009054906101000a900460ff16151503611b2657600091505b8080611b319061247f565b915050611a7b565b506001151581151514611b81576040517f08c379a0000000000000000000000000000000000000000000000000000000008152600401611b789061257f565b60405180910390fd5b611bcc600160003373ffffffffffffffffffffffffffffffffffffffff1673ffffffffffffffffffffffffffffffffffffffff16815260200190815260200160002060030154611ec1565b34141580611c1d57506000600160003373ffffffffffffffffffffffffffffffffffffffff1673ffffffffffffffffffffffffffffffffffffffff1681526020019081526020016000206003015413155b15611c2757600080fd5b34600360003373ffffffffffffffffffffffffffffffffffffffff1673ffffffffffffffffffffffffffffffffffffffff1681526020019081526020016000206000828254611c76919061260b565b925050819055505050565b60028181548110611c9157600080fd5b906000526020600020016000915054906101000a900473ffffffffffffffffffffffffffffffffffffffff1681565b600080600090505b600280549050811015611d76576001600060028381548110611ced57611cec612421565b5b9060005260206000200160009054906101000a900473ffffffffffffffffffffffffffffffffffffffff1673ffffffffffffffffffffffffffffffffffffffff1673ffffffffffffffffffffffffffffffffffffffff1681526020019081526020016000206001015482611d61919061260b565b91508080611d6e9061247f565b915050611cc8565b5060028054905081611d889190612806565b905060005b600280549050811015611ebd576001600060028381548110611db257611db1612421565b5b9060005260206000200160009054906101000a900473ffffffffffffffffffffffffffffffffffffffff1673ffffffffffffffffffffffffffffffffffffffff1673ffffffffffffffffffffffffffffffffffffffff1681526020019081526020016000206001015482611e269190612870565b6001600060028481548110611e3e57611e3d612421565b5b9060005260206000200160009054906101000a900473ffffffffffffffffffffffffffffffffffffffff1673ffffffffffffffffffffffffffffffffffffffff1673ffffffffffffffffffffffffffffffffffffffff168152602001908152602001600020600301819055508080611eb59061247f565b915050611d8d565b5050565b600080821215611eda5781611ed590612904565b611edc565b815b9050919050565b828054611eef906126ce565b90600052602060002090601f016020900481019282611f115760008555611f58565b82601f10611f2a57805160ff1916838001178555611f58565b82800160010185558215611f58579182015b82811115611f57578251825591602001919060010190611f3c565b5b509050611f659190611f69565b5090565b5b80821115611f82576000816000905550600101611f6a565b5090565b6000604051905090565b600080fd5b600080fd5b600073ffffffffffffffffffffffffffffffffffffffff82169050919050565b6000611fc582611f9a565b9050919050565b611fd581611fba565b8114611fe057600080fd5b50565b600081359050611ff281611fcc565b92915050565b600080fd5b600080fd5b6000601f19601f8301169050919050565b7f4e487b7100000000000000000000000000000000000000000000000000000000600052604160045260246000fd5b61204b82612002565b810181811067ffffffffffffffff8211171561206a57612069612013565b5b80604052505050565b600061207d611f86565b90506120898282612042565b919050565b600067ffffffffffffffff8211156120a9576120a8612013565b5b6120b282612002565b9050602081019050919050565b82818337600083830152505050565b60006120e16120dc8461208e565b612073565b9050828152602081018484840111156120fd576120fc611ffd565b5b6121088482856120bf565b509392505050565b600082601f83011261212557612124611ff8565b5b81356121358482602086016120ce565b91505092915050565b6000806040838503121561215557612154611f90565b5b600061216385828601611fe3565b925050602083013567ffffffffffffffff81111561218457612183611f95565b5b61219085828601612110565b9150509250929050565b6000819050919050565b6121ad8161219a565b81146121b857600080fd5b50565b6000813590506121ca816121a4565b92915050565b6000602082840312156121e6576121e5611f90565b5b60006121f4848285016121bb565b91505092915050565b61220681611fba565b82525050565b600060208201905061222160008301846121fd565b92915050565b60006020828403121561223d5761223c611f90565b5b600061224b84828501611fe3565b91505092915050565b600081519050919050565b600082825260208201905092915050565b60005b8381101561228e578082015181840152602081019050612273565b8381111561229d576000848401525b50505050565b60006122ae82612254565b6122b8818561225f565b93506122c8818560208601612270565b6122d181612002565b840191505092915050565b6122e58161219a565b82525050565b60008115159050919050565b612300816122eb565b82525050565b6000608082019050818103600083015261232081876122a3565b905061232f60208301866122dc565b61233c60408301856122f7565b61234960608301846122dc565b95945050505050565b6000819050919050565b61236581612352565b811461237057600080fd5b50565b6000813590506123828161235c565b92915050565b60006020828403121561239e5761239d611f90565b5b60006123ac84828501612373565b91505092915050565b7f43616c6c6572206973206e6f742041646d696e00000000000000000000000000600082015250565b60006123eb60138361225f565b91506123f6826123b5565b602082019050919050565b6000602082019050818103600083015261241a816123de565b9050919050565b7f4e487b7100000000000000000000000000000000000000000000000000000000600052603260045260246000fd5b7f4e487b7100000000000000000000000000000000000000000000000000000000600052601160045260246000fd5b600061248a82612352565b91507fffffffffffffffffffffffffffffffffffffffffffffffffffffffffffffffff82036124bc576124bb612450565b5b600182019050919050565b7f43616c6c6572206973206e6f7420612067726f7570206d656d62657200000000600082015250565b60006124fd601c8361225f565b9150612508826124c7565b602082019050919050565b6000602082019050818103600083015261252c816124f0565b9050919050565b7f4e6f742065766572796f6e652061677265657320746f2073706c697400000000600082015250565b6000612569601c8361225f565b915061257482612533565b602082019050919050565b600060208201905081810360008301526125988161255c565b9050919050565b7f4e6f742065766572796f6e652068617320706169640000000000000000000000600082015250565b60006125d560158361225f565b91506125e08261259f565b602082019050919050565b60006020820190508181036000830152612604816125c8565b9050919050565b60006126168261219a565b91506126218361219a565b9250817f7fffffffffffffffffffffffffffffffffffffffffffffffffffffffffffffff0383136000831215161561265c5761265b612450565b5b817f800000000000000000000000000000000000000000000000000000000000000003831260008312161561269457612693612450565b5b828201905092915050565b7f4e487b7100000000000000000000000000000000000000000000000000000000600052602260045260246000fd5b600060028204905060018216806126e657607f821691505b6020821081036126f9576126f861269f565b5b50919050565b600081905092915050565b60008190508160005260206000209050919050565b6000815461272c816126ce565b61273681866126ff565b94506001821660008114612751576001811461276257612795565b60ff19831686528186019350612795565b61276b8561270a565b60005b8381101561278d5781548189015260018201915060208101905061276e565b838801955050505b50505092915050565b60006127aa828461271f565b915081905092915050565b600060208201905081810360008301526127cf81846122a3565b905092915050565b7f4e487b7100000000000000000000000000000000000000000000000000000000600052601260045260246000fd5b60006128118261219a565b915061281c8361219a565b92508261282c5761282b6127d7565b5b600160000383147f80000000000000000000000000000000000000000000000000000000000000008314161561286557612864612450565b5b828205905092915050565b600061287b8261219a565b91506128868361219a565b9250827f8000000000000000000000000000000000000000000000000000000000000000018212600084121516156128c1576128c0612450565b5b827f7fffffffffffffffffffffffffffffffffffffffffffffffffffffffffffffff0182136000841216156128f9576128f8612450565b5b828203905092915050565b600061290f8261219a565b91507f8000000000000000000000000000000000000000000000000000000000000000820361294157612940612450565b5b81600003905091905056fea26469706673582212206e6d0c7d3e1b95fef6d89fd3fc4a71641aa2129ebda33162e4979be9e8ba4ec264736f6c634300080e0033",
  "immutableReferences": {},
  "source": "// SPDX-License-Identifier: GPL-3.0\n\npragma solidity >=0.7.0 < 0.9.0;\n\ncontract Sbitwise {\n    //initiate group member structure\n    struct groupMember {\n        string name;\n        int amountPaid;\n        bool confirmedSplit;\n        int owes;\n    }\n\n    //the person who initiates the contract is the group admin\n    address public groupAdmin;\n\n    // events\n    event AdminSet(address indexed oldAdmin, address indexed newAdmin);\n    event newSplit(string indexed name, string exchangeType, int indexed amount);\n    \n    // modifier to check if caller is admin\n    modifier isAdmin() {\n        require(msg.sender == groupAdmin, \"Caller is not Admin\");\n        _;\n    }\n    \n    // modifier to check if caller is group member\n    modifier isGroupMember() {\n        bool isMember = false;\n        for(uint i = 0; i < memberAddresses.length; i++ ){\n            if(msg.sender == memberAddresses[i]){\n                isMember = true;\n            }\n        }\n        require(isMember == true, \"Caller is not a group member\");\n        _;\n    }\n\n    //modifier to check if everyone agrees to split\n    modifier everyoneAgreesToSplit() {\n        bool everyoneAgrees = true;\n        for(uint i = 0; i < memberAddresses.length; i++ ){\n            if(groupMembers[memberAddresses[i]].confirmedSplit == false){\n                everyoneAgrees = false;\n            }\n        }\n        require(everyoneAgrees == true, \"Not everyone agrees to split\");\n        _;\n    }\n\n    //modifier to check if everyone has paid\n    modifier allPaid() {\n        bool everyonePaid = true;\n        for(uint i = 0; i < memberAddresses.length; i++ ){\n            if(groupMembers[memberAddresses[i]].owes != balances[memberAddresses[i]] && groupMembers[memberAddresses[i]].owes > 0){\n                everyonePaid = false;\n            }\n        }\n        require(everyonePaid == true, \"Not everyone has paid\");\n        _;\n    }\n\n    //make a mapping from address to group member and a list of member addresses.\n    mapping(address => groupMember) public groupMembers;\n    address[] public memberAddresses;\n\n    //Set the contract initiator to group admin. \n    constructor(string memory _adminName){\n        groupAdmin = msg.sender;\n        groupMembers[groupAdmin].name = _adminName;\n        groupMembers[groupAdmin].amountPaid = 0;\n        groupMembers[groupAdmin].confirmedSplit = false;\n        memberAddresses.push(groupAdmin);\n    }\n\n    //Absolute value utility function\n    function abs(int x) private pure returns (int) {\n        return x >= 0 ? x : -x;\n    }\n\n    //Admin adds members to group.\n    //SHOULD CHECK THAT USER NOT ALREADY IN GROUP\n    function addToGroup(address _groupMember, string memory _name) external isAdmin {\n        groupMembers[_groupMember].name = _name;\n        groupMembers[_groupMember].amountPaid = 0;\n        groupMembers[_groupMember].confirmedSplit = false;\n        memberAddresses.push( _groupMember);\n    }\n\n    //Admin removes member from the group\n    function removeFromGroup(address _groupMember) external isAdmin {\n        //TBD\n    }\n\n    //A user claims that they have paid this much. The split is updated. Everyone's confirmed split parameters are set to false. \n    function setPaid(int _valuePaid) external isGroupMember {\n        groupMembers[msg.sender].amountPaid = _valuePaid;\n        for(uint i = 0; i < memberAddresses.length; i++ ){\n            groupMembers[memberAddresses[i]].confirmedSplit = false;\n        }\n        updateSplitCalculation();\n    }\n\n    //Add a value onto the currently saved paid amount (IE you bought an additional item for the group)\n    function addToPaid(int _valuePaid) external isGroupMember {\n        groupMembers[msg.sender].amountPaid += _valuePaid;\n        for(uint i = 0; i < memberAddresses.length; i++ ){\n            groupMembers[memberAddresses[i]].confirmedSplit = false;\n        }\n        updateSplitCalculation();\n    }\n\n    //calculate how much each member owes or is owed.\n    function updateSplitCalculation() internal {\n        int averagePaid;\n        for(uint i = 0; i < memberAddresses.length; i++ ){\n            averagePaid += groupMembers[memberAddresses[i]].amountPaid;\n        }\n        averagePaid = averagePaid / int(memberAddresses.length);\n        for(uint i = 0; i < memberAddresses.length; i++ ){\n            groupMembers[memberAddresses[i]].owes = averagePaid - groupMembers[memberAddresses[i]].amountPaid;\n        }\n    }\n\n    //emit an event that says how much everyone owes or is owed.\n    function printSplit() public {\n        string memory exchangeType;\n        for(uint i = 0; i < memberAddresses.length; i++ ){\n            if(groupMembers[memberAddresses[i]].owes >= 0){\n                exchangeType = \"will pay\";\n            }\n            else{\n                exchangeType = \"will receive\";\n            }\n            emit newSplit(groupMembers[memberAddresses[i]].name, exchangeType, abs(groupMembers[memberAddresses[i]].owes));\n        }\n    }\n\n    //each user confirms that they agree to the current split.\n    function agreeToSplit() external isGroupMember{\n        //Everyone must agree to the split before you can settle up.\n        groupMembers[msg.sender].confirmedSplit = true;\n    }\n\n    mapping(address => int) balances;\n\n    //Members are able to put money into the contract\n    function putMoneyInContract() external payable isGroupMember everyoneAgreesToSplit{\n        if(msg.value != uint(abs(groupMembers[msg.sender].owes)) || groupMembers[msg.sender].owes <= 0){\n            revert();\n        }\n        balances[msg.sender] += int(msg.value);\n    }\n\n    //If everyone agrees to split and everyone who owes has paid, funds are sent to those who are owed. \n    function settleUp() external everyoneAgreesToSplit allPaid{\n        address payable payableAddr;\n        for(uint i = 0; i < memberAddresses.length; i++ ){\n            if(groupMembers[memberAddresses[i]].owes < 0){\n                payableAddr = payable(memberAddresses[i]);\n                payableAddr.transfer(uint(abs(groupMembers[memberAddresses[i]].owes))); //Transfer what they are owed to their account.\n            }\n        }\n        //reset all balances to 0\n        for(uint i = 0; i< memberAddresses.length; i++){\n            balances[memberAddresses[i]] = 0;\n            groupMembers[memberAddresses[i]].confirmedSplit = false;\n            groupMembers[memberAddresses[i]].amountPaid = 0;\n            groupMembers[memberAddresses[i]].owes = 0;\n        }\n    }\n\n    //Return all funds that have been paid to original recipients (used after money is put in but before settle up).\n    function sendAllMoneyBack() external isAdmin{\n        for(uint i = 0; i < memberAddresses.length; i++ ){\n            address payable payableAddr;\n            if(balances[memberAddresses[i]] > 0){\n                payableAddr = payable(memberAddresses[i]);\n                payableAddr.transfer(uint(balances[memberAddresses[i]]));\n                balances[memberAddresses[i]] = 0;\n            }\n            groupMembers[memberAddresses[i]].confirmedSplit = false;\n        }\n    }\n\n    //Changes the admin\n    function changeAdmin(address _newAdmin) public isAdmin {\n        emit AdminSet(groupAdmin, _newAdmin);\n        groupAdmin = _newAdmin;\n    }\n}",
  "sourcePath": "C:\\Users\\ccall\\OneDrive\\Desktop\\Truffle_Project_2_Sbitwise\\contracts\\Sbitwise.sol",
  "compiler": {
    "name": "solc",
    "version": "0.8.14+commit.80d49f37.Emscripten.clang"
  },
  "schemaVersion": "3.4.7",
  "updatedAt": "2022-07-06T21:46:14.615Z",
  "networkType": "ethereum",
  "devdoc": {
    "kind": "dev",
    "methods": {},
    "version": 1
  },
  "userdoc": {
    "kind": "user",
    "methods": {},
    "version": 1
  }
}