{
  "contractName": "Sbitwise",
  "abi": [
    {
      "inputs": [
        {
          "internalType": "string",
          "name": "_adminName",
          "type": "string"
        }
      ],
      "stateMutability": "nonpayable",
      "type": "constructor"
    },
    {
      "anonymous": false,
      "inputs": [
        {
          "indexed": true,
          "internalType": "address",
          "name": "oldAdmin",
          "type": "address"
        },
        {
          "indexed": true,
          "internalType": "address",
          "name": "newAdmin",
          "type": "address"
        }
      ],
      "name": "AdminSet",
      "type": "event"
    },
    {
      "anonymous": false,
      "inputs": [
        {
          "indexed": true,
          "internalType": "address",
          "name": "memberAddress",
          "type": "address"
        },
        {
          "indexed": true,
          "internalType": "string",
          "name": "name",
          "type": "string"
        }
      ],
      "name": "memberRemoved",
      "type": "event"
    },
    {
      "anonymous": false,
      "inputs": [
        {
          "indexed": true,
          "internalType": "string",
          "name": "name",
          "type": "string"
        },
        {
          "indexed": false,
          "internalType": "string",
          "name": "exchangeType",
          "type": "string"
        },
        {
          "indexed": true,
          "internalType": "int256",
          "name": "amount",
          "type": "int256"
        }
      ],
      "name": "newSplit",
      "type": "event"
    },
    {
      "inputs": [
        {
          "internalType": "address",
          "name": "",
          "type": "address"
        }
      ],
      "name": "balances",
      "outputs": [
        {
          "internalType": "int256",
          "name": "",
          "type": "int256"
        }
      ],
      "stateMutability": "view",
      "type": "function"
    },
    {
      "inputs": [],
      "name": "groupAdmin",
      "outputs": [
        {
          "internalType": "address",
          "name": "",
          "type": "address"
        }
      ],
      "stateMutability": "view",
      "type": "function"
    },
    {
      "inputs": [
        {
          "internalType": "address",
          "name": "",
          "type": "address"
        }
      ],
      "name": "groupMembers",
      "outputs": [
        {
          "internalType": "string",
          "name": "name",
          "type": "string"
        },
        {
          "internalType": "int256",
          "name": "amountPaid",
          "type": "int256"
        },
        {
          "internalType": "bool",
          "name": "confirmedSplit",
          "type": "bool"
        },
        {
          "internalType": "int256",
          "name": "owes",
          "type": "int256"
        }
      ],
      "stateMutability": "view",
      "type": "function"
    },
    {
      "inputs": [
        {
          "internalType": "uint256",
          "name": "",
          "type": "uint256"
        }
      ],
      "name": "memberAddresses",
      "outputs": [
        {
          "internalType": "address",
          "name": "",
          "type": "address"
        }
      ],
      "stateMutability": "view",
      "type": "function"
    },
    {
      "inputs": [
        {
          "internalType": "address",
          "name": "_groupMember",
          "type": "address"
        },
        {
          "internalType": "string",
          "name": "_name",
          "type": "string"
        }
      ],
      "name": "addToGroup",
      "outputs": [],
      "stateMutability": "nonpayable",
      "type": "function"
    },
    {
      "inputs": [
        {
          "internalType": "address",
          "name": "_groupMember",
          "type": "address"
        }
      ],
      "name": "removeFromGroup",
      "outputs": [],
      "stateMutability": "nonpayable",
      "type": "function"
    },
    {
      "inputs": [
        {
          "internalType": "int256",
          "name": "_valuePaid",
          "type": "int256"
        }
      ],
      "name": "addToPaid",
      "outputs": [],
      "stateMutability": "nonpayable",
      "type": "function"
    },
    {
      "inputs": [],
      "name": "printSplit",
      "outputs": [],
      "stateMutability": "nonpayable",
      "type": "function"
    },
    {
      "inputs": [],
      "name": "agreeToSplit",
      "outputs": [],
      "stateMutability": "nonpayable",
      "type": "function"
    },
    {
      "inputs": [],
      "name": "putMoneyInContract",
      "outputs": [],
      "stateMutability": "payable",
      "type": "function"
    },
    {
      "inputs": [],
      "name": "settleUp",
      "outputs": [],
      "stateMutability": "nonpayable",
      "type": "function"
    },
    {
      "inputs": [],
      "name": "sendAllMoneyBack",
      "outputs": [],
      "stateMutability": "nonpayable",
      "type": "function"
    },
    {
      "inputs": [
        {
          "internalType": "address",
          "name": "_newAdmin",
          "type": "address"
        }
      ],
      "name": "changeAdmin",
      "outputs": [],
      "stateMutability": "nonpayable",
      "type": "function"
    }
  ],
  "bytecode": "0x60806040523480156200001157600080fd5b5060405162002fd338038062002fd38339818101604052810190620000379190620004ad565b336000806101000a81548173ffffffffffffffffffffffffffffffffffffffff021916908373ffffffffffffffffffffffffffffffffffffffff16021790555080600160008060009054906101000a900473ffffffffffffffffffffffffffffffffffffffff1673ffffffffffffffffffffffffffffffffffffffff1673ffffffffffffffffffffffffffffffffffffffff1681526020019081526020016000206000019080519060200190620000f092919062000260565b506000600160008060009054906101000a900473ffffffffffffffffffffffffffffffffffffffff1673ffffffffffffffffffffffffffffffffffffffff1673ffffffffffffffffffffffffffffffffffffffff168152602001908152602001600020600101819055506000600160008060009054906101000a900473ffffffffffffffffffffffffffffffffffffffff1673ffffffffffffffffffffffffffffffffffffffff1673ffffffffffffffffffffffffffffffffffffffff16815260200190815260200160002060020160006101000a81548160ff021916908315150217905550600260008054906101000a900473ffffffffffffffffffffffffffffffffffffffff169080600181540180825580915050600190039060005260206000200160009091909190916101000a81548173ffffffffffffffffffffffffffffffffffffffff021916908373ffffffffffffffffffffffffffffffffffffffff1602179055505062000562565b8280546200026e906200052d565b90600052602060002090601f016020900481019282620002925760008555620002de565b82601f10620002ad57805160ff1916838001178555620002de565b82800160010185558215620002de579182015b82811115620002dd578251825591602001919060010190620002c0565b5b509050620002ed9190620002f1565b5090565b5b808211156200030c576000816000905550600101620002f2565b5090565b6000604051905090565b600080fd5b600080fd5b600080fd5b600080fd5b6000601f19601f8301169050919050565b7f4e487b7100000000000000000000000000000000000000000000000000000000600052604160045260246000fd5b62000379826200032e565b810181811067ffffffffffffffff821117156200039b576200039a6200033f565b5b80604052505050565b6000620003b062000310565b9050620003be82826200036e565b919050565b600067ffffffffffffffff821115620003e157620003e06200033f565b5b620003ec826200032e565b9050602081019050919050565b60005b8381101562000419578082015181840152602081019050620003fc565b8381111562000429576000848401525b50505050565b6000620004466200044084620003c3565b620003a4565b90508281526020810184848401111562000465576200046462000329565b5b62000472848285620003f9565b509392505050565b600082601f83011262000492576200049162000324565b5b8151620004a48482602086016200042f565b91505092915050565b600060208284031215620004c657620004c56200031a565b5b600082015167ffffffffffffffff811115620004e757620004e66200031f565b5b620004f5848285016200047a565b91505092915050565b7f4e487b7100000000000000000000000000000000000000000000000000000000600052602260045260246000fd5b600060028204905060018216806200054657607f821691505b6020821081036200055c576200055b620004fe565b5b50919050565b612a6180620005726000396000f3fe6080604052600436106100c25760003560e01c80637ee9b2381161007f57806398281d111161005957806398281d11146102415780639de227ef14610258578063b3c7b11c1461026f578063cc4e629914610279576100c2565b80637ee9b238146101af5780638f283970146101d85780639473ed4714610201576100c2565b80631545ae9d146100c757806327e235e3146100f057806340e395311461012d578063425e0d0f146101585780635287b84b1461018157806364e8dbee14610198575b600080fd5b3480156100d357600080fd5b506100ee60048036038101906100e9919061219f565b6102b6565b005b3480156100fc57600080fd5b50610117600480360381019061011291906121fb565b6104a5565b6040516101249190612241565b60405180910390f35b34801561013957600080fd5b506101426104bd565b60405161014f919061226b565b60405180910390f35b34801561016457600080fd5b5061017f600480360381019061017a91906121fb565b6104e1565b005b34801561018d57600080fd5b50610196610799565b005b3480156101a457600080fd5b506101ad610ec4565b005b3480156101bb57600080fd5b506101d660048036038101906101d191906122b2565b611003565b005b3480156101e457600080fd5b506101ff60048036038101906101fa91906121fb565b611207565b005b34801561020d57600080fd5b50610228600480360381019061022391906121fb565b611352565b6040516102389493929190612382565b60405180910390f35b34801561024d57600080fd5b50610256611417565b005b34801561026457600080fd5b5061026d611775565b005b6102776119f1565b005b34801561028557600080fd5b506102a0600480360381019061029b9190612404565b611ce2565b6040516102ad919061226b565b60405180910390f35b60008054906101000a900473ffffffffffffffffffffffffffffffffffffffff1673ffffffffffffffffffffffffffffffffffffffff163373ffffffffffffffffffffffffffffffffffffffff1614610344576040517f08c379a000000000000000000000000000000000000000000000000000000000815260040161033b9061247d565b60405180910390fd5b80600160008473ffffffffffffffffffffffffffffffffffffffff1673ffffffffffffffffffffffffffffffffffffffff168152602001908152602001600020600001908051906020019061039a929190611f44565b506000600160008473ffffffffffffffffffffffffffffffffffffffff1673ffffffffffffffffffffffffffffffffffffffff168152602001908152602001600020600101819055506000600160008473ffffffffffffffffffffffffffffffffffffffff1673ffffffffffffffffffffffffffffffffffffffff16815260200190815260200160002060020160006101000a81548160ff0219169083151502179055506002829080600181540180825580915050600190039060005260206000200160009091909190916101000a81548173ffffffffffffffffffffffffffffffffffffffff021916908373ffffffffffffffffffffffffffffffffffffffff1602179055505050565b60036020528060005260406000206000915090505481565b60008054906101000a900473ffffffffffffffffffffffffffffffffffffffff1681565b60008054906101000a900473ffffffffffffffffffffffffffffffffffffffff1673ffffffffffffffffffffffffffffffffffffffff163373ffffffffffffffffffffffffffffffffffffffff161461056f576040517f08c379a00000000000000000000000000000000000000000000000000000000081526004016105669061247d565b60405180910390fd5b60005b600280549050811015610795578173ffffffffffffffffffffffffffffffffffffffff16600282815481106105aa576105a961249d565b5b9060005260206000200160009054906101000a900473ffffffffffffffffffffffffffffffffffffffff1673ffffffffffffffffffffffffffffffffffffffff1603610782576002600160028054905061060491906124fb565b815481106106155761061461249d565b5b9060005260206000200160009054906101000a900473ffffffffffffffffffffffffffffffffffffffff16600282815481106106545761065361249d565b5b9060005260206000200160006101000a81548173ffffffffffffffffffffffffffffffffffffffff021916908373ffffffffffffffffffffffffffffffffffffffff16021790555060028054806106ae576106ad61252f565b5b6001900381819060005260206000200160006101000a81549073ffffffffffffffffffffffffffffffffffffffff02191690559055600160008373ffffffffffffffffffffffffffffffffffffffff1673ffffffffffffffffffffffffffffffffffffffff168152602001908152602001600020600001604051610732919061265d565b60405180910390208273ffffffffffffffffffffffffffffffffffffffff167f72fd410352cd0e56aeee15aa7a7c9c371b0351c3170e010d26830e723a3025ec60405160405180910390a3610795565b808061078d90612674565b915050610572565b5050565b60006001905060005b600280549050811015610860576000151560016000600284815481106107cb576107ca61249d565b5b9060005260206000200160009054906101000a900473ffffffffffffffffffffffffffffffffffffffff1673ffffffffffffffffffffffffffffffffffffffff1673ffffffffffffffffffffffffffffffffffffffff16815260200190815260200160002060020160009054906101000a900460ff1615150361084d57600091505b808061085890612674565b9150506107a2565b5060011515811515146108a8576040517f08c379a000000000000000000000000000000000000000000000000000000000815260040161089f90612708565b60405180910390fd5b60006001905060005b600280549050811015610a685760036000600283815481106108d6576108d561249d565b5b9060005260206000200160009054906101000a900473ffffffffffffffffffffffffffffffffffffffff1673ffffffffffffffffffffffffffffffffffffffff1673ffffffffffffffffffffffffffffffffffffffff1681526020019081526020016000205460016000600284815481106109545761095361249d565b5b9060005260206000200160009054906101000a900473ffffffffffffffffffffffffffffffffffffffff1673ffffffffffffffffffffffffffffffffffffffff1673ffffffffffffffffffffffffffffffffffffffff1681526020019081526020016000206003015414158015610a4b5750600060016000600284815481106109e0576109df61249d565b5b9060005260206000200160009054906101000a900473ffffffffffffffffffffffffffffffffffffffff1673ffffffffffffffffffffffffffffffffffffffff1673ffffffffffffffffffffffffffffffffffffffff16815260200190815260200160002060030154135b15610a5557600091505b8080610a6090612674565b9150506108b1565b506001151581151514610ab0576040517f08c379a0000000000000000000000000000000000000000000000000000000008152600401610aa790612774565b60405180910390fd5b600080600090505b600280549050811015610c725760006001600060028481548110610adf57610ade61249d565b5b9060005260206000200160009054906101000a900473ffffffffffffffffffffffffffffffffffffffff1673ffffffffffffffffffffffffffffffffffffffff1673ffffffffffffffffffffffffffffffffffffffff168152602001908152602001600020600301541215610c5f5760028181548110610b6257610b6161249d565b5b9060005260206000200160009054906101000a900473ffffffffffffffffffffffffffffffffffffffff1691508173ffffffffffffffffffffffffffffffffffffffff166108fc610c326001600060028681548110610bc457610bc361249d565b5b9060005260206000200160009054906101000a900473ffffffffffffffffffffffffffffffffffffffff1673ffffffffffffffffffffffffffffffffffffffff1673ffffffffffffffffffffffffffffffffffffffff16815260200190815260200160002060030154611d21565b9081150290604051600060405180830381858888f19350505050158015610c5d573d6000803e3d6000fd5b505b8080610c6a90612674565b915050610ab8565b5060005b600280549050811015610ebe5760006003600060028481548110610c9d57610c9c61249d565b5b9060005260206000200160009054906101000a900473ffffffffffffffffffffffffffffffffffffffff1673ffffffffffffffffffffffffffffffffffffffff1673ffffffffffffffffffffffffffffffffffffffff1681526020019081526020016000208190555060006001600060028481548110610d2057610d1f61249d565b5b9060005260206000200160009054906101000a900473ffffffffffffffffffffffffffffffffffffffff1673ffffffffffffffffffffffffffffffffffffffff1673ffffffffffffffffffffffffffffffffffffffff16815260200190815260200160002060020160006101000a81548160ff02191690831515021790555060006001600060028481548110610db957610db861249d565b5b9060005260206000200160009054906101000a900473ffffffffffffffffffffffffffffffffffffffff1673ffffffffffffffffffffffffffffffffffffffff1673ffffffffffffffffffffffffffffffffffffffff1681526020019081526020016000206001018190555060006001600060028481548110610e3f57610e3e61249d565b5b9060005260206000200160009054906101000a900473ffffffffffffffffffffffffffffffffffffffff1673ffffffffffffffffffffffffffffffffffffffff1673ffffffffffffffffffffffffffffffffffffffff168152602001908152602001600020600301819055508080610eb690612674565b915050610c76565b50505050565b6000805b600280549050811015610f5e5760028181548110610ee957610ee861249d565b5b9060005260206000200160009054906101000a900473ffffffffffffffffffffffffffffffffffffffff1673ffffffffffffffffffffffffffffffffffffffff163373ffffffffffffffffffffffffffffffffffffffff1603610f4b57600191505b8080610f5690612674565b915050610ec8565b506001151581151514610fa6576040517f08c379a0000000000000000000000000000000000000000000000000000000008152600401610f9d906127e0565b60405180910390fd5b60018060003373ffffffffffffffffffffffffffffffffffffffff1673ffffffffffffffffffffffffffffffffffffffff16815260200190815260200160002060020160006101000a81548160ff02191690831515021790555050565b6000805b60028054905081101561109d57600281815481106110285761102761249d565b5b9060005260206000200160009054906101000a900473ffffffffffffffffffffffffffffffffffffffff1673ffffffffffffffffffffffffffffffffffffffff163373ffffffffffffffffffffffffffffffffffffffff160361108a57600191505b808061109590612674565b915050611007565b5060011515811515146110e5576040517f08c379a00000000000000000000000000000000000000000000000000000000081526004016110dc906127e0565b60405180910390fd5b81600160003373ffffffffffffffffffffffffffffffffffffffff1673ffffffffffffffffffffffffffffffffffffffff16815260200190815260200160002060010160008282546111379190612800565b9250508190555060005b6002805490508110156111fa57600060016000600284815481106111685761116761249d565b5b9060005260206000200160009054906101000a900473ffffffffffffffffffffffffffffffffffffffff1673ffffffffffffffffffffffffffffffffffffffff1673ffffffffffffffffffffffffffffffffffffffff16815260200190815260200160002060020160006101000a81548160ff02191690831515021790555080806111f290612674565b915050611141565b50611203611d43565b5050565b60008054906101000a900473ffffffffffffffffffffffffffffffffffffffff1673ffffffffffffffffffffffffffffffffffffffff163373ffffffffffffffffffffffffffffffffffffffff1614611295576040517f08c379a000000000000000000000000000000000000000000000000000000000815260040161128c9061247d565b60405180910390fd5b8073ffffffffffffffffffffffffffffffffffffffff1660008054906101000a900473ffffffffffffffffffffffffffffffffffffffff1673ffffffffffffffffffffffffffffffffffffffff167fbf265e8326285a2747e33e54d5945f7111f2b5edb826eb8c08d4677779b3ff9760405160405180910390a3806000806101000a81548173ffffffffffffffffffffffffffffffffffffffff021916908373ffffffffffffffffffffffffffffffffffffffff16021790555050565b60016020528060005260406000206000915090508060000180546113759061258d565b80601f01602080910402602001604051908101604052809291908181526020018280546113a19061258d565b80156113ee5780601f106113c3576101008083540402835291602001916113ee565b820191906000526020600020905b8154815290600101906020018083116113d157829003601f168201915b5050505050908060010154908060020160009054906101000a900460ff16908060030154905084565b60008054906101000a900473ffffffffffffffffffffffffffffffffffffffff1673ffffffffffffffffffffffffffffffffffffffff163373ffffffffffffffffffffffffffffffffffffffff16146114a5576040517f08c379a000000000000000000000000000000000000000000000000000000000815260040161149c9061247d565b60405180910390fd5b60005b6002805490508110156117725760008060036000600285815481106114d0576114cf61249d565b5b9060005260206000200160009054906101000a900473ffffffffffffffffffffffffffffffffffffffff1673ffffffffffffffffffffffffffffffffffffffff1673ffffffffffffffffffffffffffffffffffffffff1681526020019081526020016000205413156116c557600282815481106115505761154f61249d565b5b9060005260206000200160009054906101000a900473ffffffffffffffffffffffffffffffffffffffff1690508073ffffffffffffffffffffffffffffffffffffffff166108fc60036000600286815481106115af576115ae61249d565b5b9060005260206000200160009054906101000a900473ffffffffffffffffffffffffffffffffffffffff1673ffffffffffffffffffffffffffffffffffffffff1673ffffffffffffffffffffffffffffffffffffffff168152602001908152602001600020549081150290604051600060405180830381858888f19350505050158015611640573d6000803e3d6000fd5b506000600360006002858154811061165b5761165a61249d565b5b9060005260206000200160009054906101000a900473ffffffffffffffffffffffffffffffffffffffff1673ffffffffffffffffffffffffffffffffffffffff1673ffffffffffffffffffffffffffffffffffffffff168152602001908152602001600020819055505b600060016000600285815481106116df576116de61249d565b5b9060005260206000200160009054906101000a900473ffffffffffffffffffffffffffffffffffffffff1673ffffffffffffffffffffffffffffffffffffffff1673ffffffffffffffffffffffffffffffffffffffff16815260200190815260200160002060020160006101000a81548160ff02191690831515021790555050808061176a90612674565b9150506114a8565b50565b606060005b6002805490508110156119ed57600060016000600284815481106117a1576117a061249d565b5b9060005260206000200160009054906101000a900473ffffffffffffffffffffffffffffffffffffffff1673ffffffffffffffffffffffffffffffffffffffff1673ffffffffffffffffffffffffffffffffffffffff168152602001908152602001600020600301541261184c576040518060400160405280600881526020017f77696c6c207061790000000000000000000000000000000000000000000000008152509150611885565b6040518060400160405280600c81526020017f77696c6c2072656365697665000000000000000000000000000000000000000081525091505b61190e60016000600284815481106118a05761189f61249d565b5b9060005260206000200160009054906101000a900473ffffffffffffffffffffffffffffffffffffffff1673ffffffffffffffffffffffffffffffffffffffff1673ffffffffffffffffffffffffffffffffffffffff16815260200190815260200160002060030154611d21565b60016000600284815481106119265761192561249d565b5b9060005260206000200160009054906101000a900473ffffffffffffffffffffffffffffffffffffffff1673ffffffffffffffffffffffffffffffffffffffff1673ffffffffffffffffffffffffffffffffffffffff16815260200190815260200160002060000160405161199b919061265d565b60405180910390207fa4a522d8b8a3c2e5dc9dd2373445d3635585c5559dc15680e67fca117de678ff846040516119d29190612894565b60405180910390a380806119e590612674565b91505061177a565b5050565b6000805b600280549050811015611a8b5760028181548110611a1657611a1561249d565b5b9060005260206000200160009054906101000a900473ffffffffffffffffffffffffffffffffffffffff1673ffffffffffffffffffffffffffffffffffffffff163373ffffffffffffffffffffffffffffffffffffffff1603611a7857600191505b8080611a8390612674565b9150506119f5565b506001151581151514611ad3576040517f08c379a0000000000000000000000000000000000000000000000000000000008152600401611aca906127e0565b60405180910390fd5b60006001905060005b600280549050811015611b9a57600015156001600060028481548110611b0557611b0461249d565b5b9060005260206000200160009054906101000a900473ffffffffffffffffffffffffffffffffffffffff1673ffffffffffffffffffffffffffffffffffffffff1673ffffffffffffffffffffffffffffffffffffffff16815260200190815260200160002060020160009054906101000a900460ff16151503611b8757600091505b8080611b9290612674565b915050611adc565b506001151581151514611be2576040517f08c379a0000000000000000000000000000000000000000000000000000000008152600401611bd990612708565b60405180910390fd5b611c2d600160003373ffffffffffffffffffffffffffffffffffffffff1673ffffffffffffffffffffffffffffffffffffffff16815260200190815260200160002060030154611d21565b34141580611c7e57506000600160003373ffffffffffffffffffffffffffffffffffffffff1673ffffffffffffffffffffffffffffffffffffffff1681526020019081526020016000206003015413155b15611c8857600080fd5b34600360003373ffffffffffffffffffffffffffffffffffffffff1673ffffffffffffffffffffffffffffffffffffffff1681526020019081526020016000206000828254611cd79190612800565b925050819055505050565b60028181548110611cf257600080fd5b906000526020600020016000915054906101000a900473ffffffffffffffffffffffffffffffffffffffff1681565b600080821215611d3a5781611d35906128b6565b611d3c565b815b9050919050565b600080600090505b600280549050811015611df9576001600060028381548110611d7057611d6f61249d565b5b9060005260206000200160009054906101000a900473ffffffffffffffffffffffffffffffffffffffff1673ffffffffffffffffffffffffffffffffffffffff1673ffffffffffffffffffffffffffffffffffffffff1681526020019081526020016000206001015482611de49190612800565b91508080611df190612674565b915050611d4b565b5060028054905081611e0b919061292d565b905060005b600280549050811015611f40576001600060028381548110611e3557611e3461249d565b5b9060005260206000200160009054906101000a900473ffffffffffffffffffffffffffffffffffffffff1673ffffffffffffffffffffffffffffffffffffffff1673ffffffffffffffffffffffffffffffffffffffff1681526020019081526020016000206001015482611ea99190612997565b6001600060028481548110611ec157611ec061249d565b5b9060005260206000200160009054906101000a900473ffffffffffffffffffffffffffffffffffffffff1673ffffffffffffffffffffffffffffffffffffffff1673ffffffffffffffffffffffffffffffffffffffff168152602001908152602001600020600301819055508080611f3890612674565b915050611e10565b5050565b828054611f509061258d565b90600052602060002090601f016020900481019282611f725760008555611fb9565b82601f10611f8b57805160ff1916838001178555611fb9565b82800160010185558215611fb9579182015b82811115611fb8578251825591602001919060010190611f9d565b5b509050611fc69190611fca565b5090565b5b80821115611fe3576000816000905550600101611fcb565b5090565b6000604051905090565b600080fd5b600080fd5b600073ffffffffffffffffffffffffffffffffffffffff82169050919050565b600061202682611ffb565b9050919050565b6120368161201b565b811461204157600080fd5b50565b6000813590506120538161202d565b92915050565b600080fd5b600080fd5b6000601f19601f8301169050919050565b7f4e487b7100000000000000000000000000000000000000000000000000000000600052604160045260246000fd5b6120ac82612063565b810181811067ffffffffffffffff821117156120cb576120ca612074565b5b80604052505050565b60006120de611fe7565b90506120ea82826120a3565b919050565b600067ffffffffffffffff82111561210a57612109612074565b5b61211382612063565b9050602081019050919050565b82818337600083830152505050565b600061214261213d846120ef565b6120d4565b90508281526020810184848401111561215e5761215d61205e565b5b612169848285612120565b509392505050565b600082601f83011261218657612185612059565b5b813561219684826020860161212f565b91505092915050565b600080604083850312156121b6576121b5611ff1565b5b60006121c485828601612044565b925050602083013567ffffffffffffffff8111156121e5576121e4611ff6565b5b6121f185828601612171565b9150509250929050565b60006020828403121561221157612210611ff1565b5b600061221f84828501612044565b91505092915050565b6000819050919050565b61223b81612228565b82525050565b60006020820190506122566000830184612232565b92915050565b6122658161201b565b82525050565b6000602082019050612280600083018461225c565b92915050565b61228f81612228565b811461229a57600080fd5b50565b6000813590506122ac81612286565b92915050565b6000602082840312156122c8576122c7611ff1565b5b60006122d68482850161229d565b91505092915050565b600081519050919050565b600082825260208201905092915050565b60005b838110156123195780820151818401526020810190506122fe565b83811115612328576000848401525b50505050565b6000612339826122df565b61234381856122ea565b93506123538185602086016122fb565b61235c81612063565b840191505092915050565b60008115159050919050565b61237c81612367565b82525050565b6000608082019050818103600083015261239c818761232e565b90506123ab6020830186612232565b6123b86040830185612373565b6123c56060830184612232565b95945050505050565b6000819050919050565b6123e1816123ce565b81146123ec57600080fd5b50565b6000813590506123fe816123d8565b92915050565b60006020828403121561241a57612419611ff1565b5b6000612428848285016123ef565b91505092915050565b7f43616c6c6572206973206e6f742041646d696e00000000000000000000000000600082015250565b60006124676013836122ea565b915061247282612431565b602082019050919050565b600060208201905081810360008301526124968161245a565b9050919050565b7f4e487b7100000000000000000000000000000000000000000000000000000000600052603260045260246000fd5b7f4e487b7100000000000000000000000000000000000000000000000000000000600052601160045260246000fd5b6000612506826123ce565b9150612511836123ce565b925082821015612524576125236124cc565b5b828203905092915050565b7f4e487b7100000000000000000000000000000000000000000000000000000000600052603160045260246000fd5b7f4e487b7100000000000000000000000000000000000000000000000000000000600052602260045260246000fd5b600060028204905060018216806125a557607f821691505b6020821081036125b8576125b761255e565b5b50919050565b600081905092915050565b60008190508160005260206000209050919050565b600081546125eb8161258d565b6125f581866125be565b94506001821660008114612610576001811461262157612654565b60ff19831686528186019350612654565b61262a856125c9565b60005b8381101561264c5781548189015260018201915060208101905061262d565b838801955050505b50505092915050565b600061266982846125de565b915081905092915050565b600061267f826123ce565b91507fffffffffffffffffffffffffffffffffffffffffffffffffffffffffffffffff82036126b1576126b06124cc565b5b600182019050919050565b7f4e6f742065766572796f6e652061677265657320746f2073706c697400000000600082015250565b60006126f2601c836122ea565b91506126fd826126bc565b602082019050919050565b60006020820190508181036000830152612721816126e5565b9050919050565b7f4e6f742065766572796f6e652068617320706169640000000000000000000000600082015250565b600061275e6015836122ea565b915061276982612728565b602082019050919050565b6000602082019050818103600083015261278d81612751565b9050919050565b7f43616c6c6572206973206e6f7420612067726f7570206d656d62657200000000600082015250565b60006127ca601c836122ea565b91506127d582612794565b602082019050919050565b600060208201905081810360008301526127f9816127bd565b9050919050565b600061280b82612228565b915061281683612228565b9250817f7fffffffffffffffffffffffffffffffffffffffffffffffffffffffffffffff03831360008312151615612851576128506124cc565b5b817f8000000000000000000000000000000000000000000000000000000000000000038312600083121615612889576128886124cc565b5b828201905092915050565b600060208201905081810360008301526128ae818461232e565b905092915050565b60006128c182612228565b91507f800000000000000000000000000000000000000000000000000000000000000082036128f3576128f26124cc565b5b816000039050919050565b7f4e487b7100000000000000000000000000000000000000000000000000000000600052601260045260246000fd5b600061293882612228565b915061294383612228565b925082612953576129526128fe565b5b600160000383147f80000000000000000000000000000000000000000000000000000000000000008314161561298c5761298b6124cc565b5b828205905092915050565b60006129a282612228565b91506129ad83612228565b9250827f8000000000000000000000000000000000000000000000000000000000000000018212600084121516156129e8576129e76124cc565b5b827f7fffffffffffffffffffffffffffffffffffffffffffffffffffffffffffffff018213600084121615612a2057612a1f6124cc565b5b82820390509291505056fea2646970667358221220fbdc12dfbae56a910ed0923edd197230930d7ec5c2f7ae6f1304e2547a4d850c64736f6c634300080e0033",
  "immutableReferences": {},
  "source": "// SPDX-License-Identifier: GPL-3.0\n// No need to use SafeMath, as lowest allowed version is 0.8.0\npragma solidity ^0.8.0;\n\ncontract Sbitwise {\n    //initiate group member structure\n    struct groupMember {\n        string name;\n        int amountPaid;\n        bool confirmedSplit;\n        int owes;\n    }\n\n    //the person who initiates the contract is the group admin\n    address public groupAdmin;\n\n    // events\n    event AdminSet(address indexed oldAdmin, address indexed newAdmin);\n    event newSplit(string indexed name, string exchangeType, int indexed amount);\n    event memberRemoved(address indexed memberAddress, string indexed name);\n    \n    // modifier to check if caller is admin\n    modifier isAdmin() {\n        require(msg.sender == groupAdmin, \"Caller is not Admin\");\n        _;\n    }\n    \n    // modifier to check if caller is group member\n    modifier isGroupMember() {\n        bool isMember = false;\n        for(uint i = 0; i < memberAddresses.length; i++ ){\n            if(msg.sender == memberAddresses[i]){\n                isMember = true;\n            }\n        }\n        require(isMember == true, \"Caller is not a group member\");\n        _;\n    }\n\n    //modifier to check if everyone agrees to split\n    modifier everyoneAgreesToSplit() {\n        bool everyoneAgrees = true;\n        for(uint i = 0; i < memberAddresses.length; i++ ){\n            if(groupMembers[memberAddresses[i]].confirmedSplit == false){\n                everyoneAgrees = false;\n            }\n        }\n        require(everyoneAgrees == true, \"Not everyone agrees to split\");\n        _;\n    }\n\n    //modifier to check if everyone has paid\n    modifier allPaid() {\n        bool everyonePaid = true;\n        for(uint i = 0; i < memberAddresses.length; i++ ){\n            if(groupMembers[memberAddresses[i]].owes != balances[memberAddresses[i]] && groupMembers[memberAddresses[i]].owes > 0){\n                everyonePaid = false;\n            }\n        }\n        require(everyonePaid == true, \"Not everyone has paid\");\n        _;\n    }\n\n    //make a mapping from address to group member and a list of member addresses.\n    mapping(address => groupMember) public groupMembers;\n    address[] public memberAddresses;\n\n    //Set the contract initiator to group admin. \n    constructor(string memory _adminName){\n        groupAdmin = msg.sender;\n        groupMembers[groupAdmin].name = _adminName;\n        groupMembers[groupAdmin].amountPaid = 0;\n        groupMembers[groupAdmin].confirmedSplit = false;\n        memberAddresses.push(groupAdmin);\n    }\n\n    //Absolute value utility function\n    function abs(int x) private pure returns (int) {\n        return x >= 0 ? x : -x;\n    }\n\n    //Admin adds members to group.\n    //SHOULD CHECK THAT USER NOT ALREADY IN GROUP\n    function addToGroup(address _groupMember, string memory _name) external isAdmin {\n        groupMembers[_groupMember].name = _name;\n        groupMembers[_groupMember].amountPaid = 0;\n        groupMembers[_groupMember].confirmedSplit = false;\n        memberAddresses.push( _groupMember);\n    }\n\n    //Admin removes member from the group -- this leaves the array unordered (which shouldn't matter, as array was unordered to begin with)\n    function removeFromGroup(address _groupMember) public isAdmin {\n        for(uint i = 0; i < memberAddresses.length; i++){\n            if(memberAddresses[i] == _groupMember){\n                memberAddresses[i] = memberAddresses[memberAddresses.length - 1];\n                memberAddresses.pop();\n                emit memberRemoved(_groupMember, groupMembers[_groupMember].name);\n                break;\n            }\n        }\n    }\n\n    //A user claims that they have paid this much. The split is updated. Everyone's confirmed split parameters are set to false. \n    //Add a value onto the currently saved paid amount (IE you bought an additional item for the group). Amount starts at 0 for everyone\n    function addToPaid(int _valuePaid) external isGroupMember {\n        groupMembers[msg.sender].amountPaid += _valuePaid;\n        for(uint i = 0; i < memberAddresses.length; i++ ){\n            groupMembers[memberAddresses[i]].confirmedSplit = false;\n        }\n        updateSplitCalculation();\n    }\n\n    //calculate how much each member owes or is owed.\n    function updateSplitCalculation() internal {\n        int averagePaid;\n        for(uint i = 0; i < memberAddresses.length; i++ ){\n            averagePaid += groupMembers[memberAddresses[i]].amountPaid;\n        }\n        averagePaid = averagePaid / int(memberAddresses.length);\n        for(uint i = 0; i < memberAddresses.length; i++ ){\n            groupMembers[memberAddresses[i]].owes = averagePaid - groupMembers[memberAddresses[i]].amountPaid;\n        }\n    }\n\n    //emit events that say how much everyone owes or is owed.\n    function printSplit() public {\n        string memory exchangeType;\n        for(uint i = 0; i < memberAddresses.length; i++ ){\n            if(groupMembers[memberAddresses[i]].owes >= 0){\n                exchangeType = \"will pay\";\n            }\n            else{\n                exchangeType = \"will receive\";\n            }\n            emit newSplit(groupMembers[memberAddresses[i]].name, exchangeType, abs(groupMembers[memberAddresses[i]].owes));\n        }\n    }\n\n    //each user confirms that they agree to the current split.\n    function agreeToSplit() external isGroupMember{\n        //Everyone must agree to the split before you can settle up.\n        groupMembers[msg.sender].confirmedSplit = true;\n    }\n\n    mapping(address => int) public balances;\n\n    //Members are able to put money into the contract\n    function putMoneyInContract() external payable isGroupMember everyoneAgreesToSplit{\n        if(msg.value != uint(abs(groupMembers[msg.sender].owes)) || groupMembers[msg.sender].owes <= 0){\n            revert();\n        }\n        balances[msg.sender] += int(msg.value);\n    }\n\n    //If everyone agrees to split and everyone who owes has paid, funds are sent to those who are owed. \n    function settleUp() external everyoneAgreesToSplit allPaid{\n        address payable payableAddr;\n        for(uint i = 0; i < memberAddresses.length; i++ ){\n            if(groupMembers[memberAddresses[i]].owes < 0){\n                payableAddr = payable(memberAddresses[i]);\n                payableAddr.transfer(uint(abs(groupMembers[memberAddresses[i]].owes))); //Transfer what they are owed to their account.\n            }\n        }\n        //reset all balances to 0\n        for(uint i = 0; i< memberAddresses.length; i++){\n            balances[memberAddresses[i]] = 0;\n            groupMembers[memberAddresses[i]].confirmedSplit = false;\n            groupMembers[memberAddresses[i]].amountPaid = 0;\n            groupMembers[memberAddresses[i]].owes = 0;\n        }\n    }\n\n    //Return all funds that have been paid to original recipients (used after money is put in but before settle up).\n    function sendAllMoneyBack() external isAdmin{\n        for(uint i = 0; i < memberAddresses.length; i++ ){\n            address payable payableAddr;\n            if(balances[memberAddresses[i]] > 0){\n                payableAddr = payable(memberAddresses[i]);\n                payableAddr.transfer(uint(balances[memberAddresses[i]]));\n                balances[memberAddresses[i]] = 0;\n            }\n            groupMembers[memberAddresses[i]].confirmedSplit = false;\n        }\n    }\n\n    //Changes the admin\n    function changeAdmin(address _newAdmin) public isAdmin {\n        emit AdminSet(groupAdmin, _newAdmin);\n        groupAdmin = _newAdmin;\n    }\n}",
  "sourcePath": "C:\\Users\\ccall\\OneDrive\\Desktop\\Truffle_Project_2_Sbitwise\\contracts\\Sbitwise.sol",
  "compiler": {
    "name": "solc",
    "version": "0.8.14+commit.80d49f37.Emscripten.clang"
  },
  "schemaVersion": "3.4.7",
  "updatedAt": "2022-07-15T01:16:49.735Z",
  "devdoc": {
    "kind": "dev",
    "methods": {},
    "version": 1
  },
  "userdoc": {
    "kind": "user",
    "methods": {},
    "version": 1
  }
}